:020000040000FA
:0600000002011D02217245
:03002B0002282385
:030033000228059B
:030053000221E89F
:03006B000227DC8D
:10008300022063E5C754F84401F5C7790122000053
:100093000080FB120086B90003020107E47924788B
:1000A30008B800028004F709D8FCE4792C7802B878
:1000B30000028004F709D8FCE49002817890790962
:1000C3008002F0A3D8FCD9FA782390014D7A01BAC3
:1000D30000028007E493A3F608DAF9900B10AA82D2
:1000E300AB8390014E787179048015E493A3AC82BD
:1000F300AD838A828B83F0A3AA82AB838C828D83A8
:10010300D8E9D9E775822D7583DE740312012F7543
:100113008291758300740012012F75D00075813FA1
:10012300752181752202759F00020096C09FF59F7D
:10013300E473D09F22D083D082C09FE493C0E07445
:100143000193C0E0740293F59F22011A062606FF6D
:100153000000B4000028002800283075A000A0008B
:10016300A000A00000080008E001F000100010004B
:10017300100010001000100050005000500010003C
:100183001000D0070000000000000F000100050070
:10019300307507001000010081FF0000FF5E077C3F
:1001A300076407FF02020208025000A0000000E8F3
:1001B30003021A94010000F59302149401000069EC
:1001C3000B020E94010000B7020214940100006AAE
:1001D3000B020C94010000CD020214940100006B89
:1001E3000B021E94010000CF020214940100006C64
:1001F3000B020894080000D0020214940100006D61
:100203000B0206940100006E0BFFFF0100FF2002AA
:100213001A94010000F293021494010000D30B021C
:10022300049400000000000210940300005F032404
:100233000E240E240E240E240E240E240E240E242B
:100243000E240E240E240E240E4811601142115365
:100253006574204D65736820616E64206765742042
:10026300746865206576656E7420696E666F0A0032
:1002730043616C6C205343414E0A00021A940100FF
:1002830000FB93021494030000FC07021C94030078
:1002930000FD07021294010000140C0214940300E1
:1002A30000FE07020094030000FF070212940100FE
:1002B30000350CFFFF020202020202020202010DDC
:1002C3000000001001021A94010000EF930214943D
:1002D3000100007A0C0218940100004608021494ED
:1002E3000100007B0C022494010000EA91021494A3
:1002F3000100007C0C022694010000C191021494B9
:100303000100007D0C0228940100006E90021494F9
:100313000100007E0C022A940100008090021494D4
:100323000100007F0C022C940100009290021494AF
:10033300010000800C022E94010000A4900214948A
:10034300010000810C023094010000B39102149467
:10035300010000820C023294010000830C01E803C7
:10036300053F10FF00013075030201060000000085
:10037300000000000000000000000000000000007A
:100383000000000000000000FFFF0600800CE803EF
:1003930002043200080100140953696D706C654250
:1003A3004C455065726970686572616C0512400155
:1003B3004001020A000201060302F0FF53696D7057
:1003C3006C6520424C4520506572697068657261A6
:1003D3006C161600001C1622160A436861726163CC
:1003E30074657269737469632031000243686172D2
:1003F30061637465726973746963203200084368CA
:100403006172616374657269737469632033001088
:1004130043686172616374657269737469632034DC
:10042300000243686172616374657269737469631E
:10043300203500021A94010000F89302149401007D
:10044300009E0D023894030000010B021294010078
:10045300009F0D021494010000B00D023A940100B4
:1004630000020B021294010000B10D02149401006A
:1004730000C20D023C94020000030B02129401001F
:1004830000C30D021494010000D40D023E94000039
:1004930000040B021094030000050B0212940100E8
:1004A30000D50D021494010000E60D0240940400EF
:1004B300000B0B021294010000E70D120138BAD8A9
:1004C30003120138D0D803120138FDD803120138C2
:1004D3002DD9031201384ED9031201387FD90312E3
:1004E300013896D903120138B7D003120138CED0A0
:1004F30003120138FDD00312013836D1031201383B
:100503005ED1031201388CD103120138A3D1031237
:100513000138BAD103120138D0D103120138F7D10F
:10052300031201380AD20312013820D20312013810
:1005330033D20312013858D203120138B0B7021272
:100543000138AFB802120138D9B8021201382EB9F6
:10055300021201384FB90212013868B90212013888
:100563006AB9021201388BB9021201388EBA02122B
:1005730001384BBB0212013818BC021201388BBC84
:10058300021201388EBC0212013814BD0212013866
:1005930057BD021201388EBD0212013814BE021279
:1005A3000138E6BE02120138E9BE0212013847BF24
:1005B300021201385FBF02120138D9BF021201389B
:1005C300DCBF02120138DFBF02120138E2BF0212A0
:1005D300013889C0021201389CC002120138B4C02C
:1005E30002120138E4C002120138F1C002120138CC
:1005F300F4C00212013860C1021201384EC2021265
:10060300013804C3021201388DCE0212013868CFBB
:100613000212013896CF0212013816D002120138A5
:1006230054D002120138BCD0021201384DD102124B
:10063300013818D20212013827D50212013893D695
:1006430002120138B6D602120138439F0312013851
:100653006B9F03120138999F03120138D09F031235
:10066300013838A00312013881A003120138CCA04D
:10067300031201380AA10312013847A103120138FA
:1006830075A1031201381CA20312013826A203121A
:10069300013833A20312013866A20312013828A3DA
:1006A3000312013834A3031201384CA30312013897
:1006B30056A3031201388ADA0312013898DA0312B7
:1006C3000138B0DA03120138C8DA0312013867D8E7
:1006D3000112013805D9011201387DD901120138FF
:1006E30092DA01120138CCDA0112013875DB0112FA
:1006F30001384ADC01120138AEDD0112013805DE92
:10070300011201388CDE0112013873DF0112013846
:10071300C0DF011201384EE00112013872E001120C
:10072300013847E20112013888E201120138AAE2D6
:10073300011201382BE30112013815E401120138CB
:10074300DBE4011201381D8703120138EF8703121E
:100753000138988803120138DB880312013868894D
:1007630003120138F48903120138D58A03120138C0
:10077300048B03120138008C03120138488C0312D6
:1007830001384A8D031201388E8D03120138B48D5E
:1007930003120138F7DB03120138BDB40312013829
:1007A300D3B403120138F9B40312013821B603128A
:1007B30001382BB60312013884B70312013884B809
:1007C300031201388EB803120138B0FA021201384D
:1007D300E5FB0212013818FC0212013862FC021216
:1007E300013820FE021201386E8E02120138F78E94
:1007F30002120138388F021201383C91021201387B
:10080300F392021201386F93021201384C940212D0
:1008130001387A9702120138189802120138759933
:1008230002120138FE9A02120138359B0212013876
:10083300DA9B021201380AC9011201386DC901128B
:100843000138B2CA01120138C2CA01120138E5CA1D
:100853000112013830CB01120138D5CB0112013816
:10086300CBCC0112013895CD011201380DCF011205
:1008730001384FCF01120138EDCF011201383AD0C0
:100883000112013860D0011201384ED20112013831
:1008930053D20112013834D40112013888D4011221
:1008A3000138EAD40112013812D501120138B6D544
:1008B3000112013878D601120138A9D60112013884
:1008C300ACD601120138F4D60112013836D7011221
:1008D30001389DD70112013874C80312013887C843
:1008E3000312013890C803120138A9C80312013852
:1008F300F4C803120138CFC9031201385ECA0312C8
:100903000138A9CA031201384828001201385428B3
:10091300001201388D2800120138D2280012013844
:100923008929001201380F2A00120138742A001293
:100933000138A02A00120138D92A00120138ED2CFF
:1009430000120138C92E00120138B43000120138E8
:10095300EB31001201384B340012013837350012E5
:1009630001387D36001201388A3700120138A73763
:1009730000120138DF3700120138F937001201384D
:10098300613800120138FB3C001201389C3D001213
:100993000138ED3D00120138143E00120138623E69
:1009A30000120138803E00120138D43E0012013893
:1009B300AD3F00120138344100120138BC4100122E
:1009C3000138EB9403120138F59403120138C095F2
:1009D30003120138DB950312013801960312013823
:1009E3004596031201387D9603120138A696031229
:1009F30001381F97031201383497031201384997BE
:100A030003120138719703120138BA9703120138A0
:100A1300CF9703120138E397031201381498031296
:100A230001384E98031201387A9803120138B198AD
:100A3300031201382E9903120138829903120138E7
:100A4300CB9903120138F599031201381A9A03124C
:100A53000138D1B0031201389BB1031201387EB2C1
:100A630003120138F4B20312013836B3031201380A
:100A730063B4031201380080021201382980021284
:100A830001384280021201388781021201386582DF
:100A930002120138848202120138118302120138D2
:100AA300548302120138A184021201382E850212E6
:100AB30001382C8702120138AB8902120138428AAD
:100AC30002120138168B02120138F88B0212013818
:100AD300648D02120138F78D0212013890D503128A
:100AE3000138F9D5031201384DD60312013874D6F3
:100AF300031201388EA803120138FBA80312013830
:100B030046A9031201383BAA0312013837AB03127B
:100B1300013821AC031201380CEA021201384EEA03
:100B23000212013828EB0212013801EC02120138DB
:100B3300FCEC02120138DBED0212013847EE02121F
:100B430001380EEF0212013879EF02120138E0EF9B
:100B5300021201380BF0021201387CF00212013844
:100B63000FF10212013878F1021201388DF10212ED
:100B73000138D5F102120138EEF10212013853F2B5
:100B83000212013856F202120138B8BF03120138BB
:100B9300E0BF031201381EC003120138DCC0031288
:100BA300013847C10312013863C1031201388BC1F5
:100BB30003120138BBC103120138CAC10312013841
:100BC30044C2031201386AC203120138926B001245
:100BD3000138626D00120138486F00120138167037
:100BE300001201385D700012013893700012013851
:100BF300A57000120138E57000120138147100125B
:100C03000138607100120138B07100120138DE71D1
:100C1300001201382F7200120138BE72001201381F
:100C2300A675001201387A7700120138B6770012E0
:100C33000138D17800120138187900120138057A89
:100C430000120138F77B001201386D7C0012013865
:100C5300BB7C00120138E17C00120138C37D001215
:100C6300013809E10212013826E102120138C0E617
:100C730002120138C2E7021201383CE902120138BC
:100C8300EAE9021201382342001201386C420012D1
:100C93000138994200120138CC4200120138D9427E
:100CA30000120138E54200120138F7420012013800
:100CB300CC43001201382A44001201385F44001269
:100CC3000138FB45001201384846001201387E46C0
:100CD30000120138E946001201387B47001201383F
:100CE300214800120138A648001201382849001291
:100CF30001387B4900120138DD4A00120138EA4A03
:100D030000120138384B00120138874B00120138AA
:100D1300264C00120138584C00120138F34C0012D3
:100D23000138504D001201388A4D001201380B4E24
:100D330000120138D44E001201387D4F00120138E1
:100D43000450001201385C5000120138BD500012EB
:100D53000138E650001201389C5100120138EF525D
:100D6300001201383253001201384F530012013878
:100D73006E5300120138B95300120138DE530012CA
:100D83000138FE53001201386D5400120138AF547C
:100D930000120138B355001201384D5600120138C4
:100DA3001957001201383257001201388EF501121B
:100DB3000138E1F501120138EDF501120138C2F6EF
:100DC30001120138E9F60112013824F70112013842
:100DD30090F701120138C4F701120138FDF701122F
:100DE300013815F8011201386EF80112013887F83D
:100DF30001120138D0F801120138E3F80112013869
:100E0300FDF80112013813F9011201382FFA01120A
:100E1300013840FB011201388DFC0112013872FDCB
:100E230001120138F57F00120138429A031201388A
:100E3300ED9A031201389D9B03120138C29B0312E2
:100E43000138B99D031201380C9F0312013894A68F
:100E530001120138C8A601120138A5AE01120138EA
:100E6300F1AF01120138F5B0011201387FB201125E
:100E7300013861B3011201389BB301120138BEB3CB
:100E83000112013800B40112013809B4011201380A
:100E930053B4011201385DB40112013809B50112CE
:100EA3000138DDB50112013831B60112013893B6AC
:100EB30001120138E6B60112013815B701120138E3
:100EC30054B7011201384494011201389E9C011257
:100ED3000138A49C011201385FA20112013845A612
:100EE3000112013898B8031201380EB90312013800
:100EF30024B90312013861B90312013899B90312F5
:100F0300013816BA0312013851BA03120138CCBAA8
:100F13000312013808BB0312013811BB0312013855
:100F23001DBB0312013837BB031201385CBB03122C
:100F3300013872BB031201389BBB03120138FEBB9D
:100F430003120138298E031201383C8E0312013833
:100F5300568E031201387F8E03120138C28E03129C
:100F63000138018F031201383F8F03120138A48F18
:100F730003120138B98F03120138C48F03120138E9
:100F8300D18F03120138E88F03120138F68F031251
:100F930001380590031201381A90031201382F907B
:100FA300031201383A9003120138469003120138B4
:100FB3005990031201386490031201388790031289
:100FC30001383091031201384091031201385591D1
:100FD300031201386F91031201388A910312013809
:100FE300A79103120138B291031201386E920312D2
:100FF30001385A93031201387F93031201388993FE
:10100300031201389D9303120138BC930312013874
:101013001D940312013823940312013829940312F7
:1010230001382F94031201383B94031201386E9454
:101033000312013826AA02120138A8AA02120138A3
:1010430051AB0212013899AC02120138A7AE021259
:1010530001388DAF02120138C2AF02120138E4AF7A
:10106300021201388DB0021201385DB2021201384A
:1010730086B202120138FEB20212013830B30212F4
:1010830001383DB30212013888B302120138ACB300
:1010930002120138FDB50212013807B702120138F6
:1010A30063B70212013810E70112013821E8011277
:1010B300013805E9011201380FE90112013831E95C
:1010C300011201383DE901120138E1EA0112013848
:1010D3000EEB0112013824EC0112013879EC0112F4
:1010E3000138C8ED011201389DEE01120138F9EE05
:1010F3000112013864EF0112013899EF011201382E
:10110300DCEF01120138A6F201120138BEF201121E
:1011130001384FF3011201385DF301120138AAF3CC
:1011230001120138B8F30112013824F40112013815
:101133009FF401120138F6F4011201386FC3021251
:10114300013891C302120138A2C50212013861C8E5
:10115300021201388BC90212013849CA021201383E
:1011630035CB02120138FECE0312013823CF03120E
:10117300013899CF03120138008003120138098026
:1011830003120138128003120138EA800312013876
:101193009B8203120138CB8203120138F6820312B9
:1011A30001382683031201385183031201388583E2
:1011B30003120138B18303120138F4830312013897
:1011C3001F8403120138668403120138BB8403129F
:1011D3000138FD84031201385785031201388285D3
:1011E30003120138D1850312013801860312013835
:1011F3002C86031201385A86031201387D860312A6
:10120300013880DC03120138ACDC03120138D9DC6D
:1012130003120138E3DC03120138F3DC0312013853
:10122300CEDE03120138EED702120138F8D70212CC
:10123300013836D8021201387FD802120138B9D8E2
:10124300021201380FD90212013830D902120138C3
:10125300BADB02120138C3DB0212013816DC0212B8
:1012630001383FDC0212013854DC02120138D0DCB1
:101273000212013858DD02120138A8DD02120138CA
:10128300D6DD0212013855DE0212013894DE021255
:101293000138CBDE02120138DDDE02120138FCDE3A
:1012A3000212013805DF02120138DBE002120138B5
:1012B300A5D6031201389CD7031201380DCD0312B2
:1012C300013843CD0312013877CD03120138C4CE60
:1012D3000312013861DB0312013877DB0312013893
:1012E30081DB03120138CBDB0312013874DD0312F7
:1012F3000138EBA303120138FEA303120138BFA484
:1013030003120138FEA4031201381BA5031201388E
:1013130054A503120138A1A503120138D3A5031262
:1013230001380AA60312013821A80312013881A843
:1013330003120138687E001201388B7E00120138D7
:10134300BA7E00120138527F001201386A7F001200
:101353000138AC7F00120138D3DD0312013815DEEA
:101363000312013898C503120138BDC503120138B1
:10137300E7C503120138FDDC03120138645700127C
:101383000138415900120138DE5A00120138935BCB
:1013930000120138135C001201389A5C0012013804
:1013A300C35C00120138155D00120138E3600012BE
:1013B30001385A6100120138896200120138C36290
:1013C300001201380463001201384A640012013824
:1013D300926400120138DB64001201383765001291
:1013E3000138A36500120138D46500120138EC6599
:1013F3000012013804670012013814670012013823
:10140300CE6800120138E56800120138176900122E
:101413000138C06A00120138546B001201382FFFE3
:101423000112013840FF0112013885DE0312013831
:10143300C4DE0312013884DF03120138ADD903126D
:101443000138BDD903120138D2D90312013884DA25
:1014530003120138ADD70312013832D80312013811
:1014630096D8031201386AD20312013893D20312B9
:101473000138F9D20312013819D3031201386AD3A0
:1014830003120138C5D303120138FFD30312013805
:1014930002D403120138E3AC0312013810AD031276
:1014A300013882AD0312013897AD03120138A1AEA2
:1014B3000312013836AF03120138AFAF03120138FC
:1014C300CEAF03120138F1AF031201382EB003126D
:1014D300013846B0031201389CB0031201386EDFA5
:1014E300031201387EDF0312013881DF0312013852
:1014F300F87F00120138D3CA0312013863CC0312F8
:101503000138C4CC031201380ACD031201380CD4BC
:101513000312013863D403120138BCD40312013817
:1015230029D503120138B2C203120138DCC20312F7
:101533000138AFC3031201388DC40312013822C529
:10154300031201387AF20212013846F3021201380B
:1015530087F302120138C1F3021201381FF4021299
:10156300013873F402120138D1F40212013867F51D
:10157300021201386FF602120138F9F7021201382C
:1015830097F802120138FEF80212013811F902121B
:10159300013805FA021201384EFA021201388E9C04
:1015A30002120138F29F021201387EA102120138A1
:1015B300D8A102120138F5A10212013875A2021254
:1015C3000138DEA302120138B4A40212013851A873
:1015D300021201383BA902120138CBA902120138C9
:1015E30012AA021201382FB80112013854BC011299
:1015F300013853BF0112013822C00112013820C241
:101603000112013841C301120138FAC30112013832
:10161300FDC30112013875C401120138EEC5011270
:10162300013870C7011201384AC80112013888C84D
:10163300011201382EBC0312013873BC03120138A6
:1016430090BC0312013846BD0312013899BD031241
:10165300013869BE031201387FBF0312013841DF2D
:10166300031201380BDF03120138D6FF02120138CF
:10167300E0FF01E066701008A3E066700A08A3E0CB
:1016830066700408A3E06622C3E7960809E7960894
:1016930009E7960809E79622C3E09608A3E09608AF
:1016A300A3E09608A3E09622C008C3E096F50808D5
:1016B300A3E096420808A3E096420808A3E09645F3
:1016C300087001D3D00822E9799EC608CAC608CBA0
:1016D300C608CCC6C370207996CACBCC7019798E54
:1016E300CBCC70137986CC700EF9802ACA33CACB5F
:1016F30033CBCC33CC331930E7F2CCCBCA335014D1
:101703007004EA30E00DE4CA3ACACB3BCBCC3CCC04
:10171300500209C3E913C6CC182313C6CB18C6CA93
:1017230018C6F9228A088B098C0A8D0B78081217C0
:101733007C30F0391217C1803412177C20F014303A
:10174300E72B74FFFCFBFA747F8022E4FCFBFA7442
:1017530080801AB48008BC00F2BB00EF800F50EB0E
:10176300F9E4C39AFAE49BFBE49CFCE499C6CC1825
:10177300C6CB18C6CA18C6F922E4C9C608CAC60821
:10178300CBC6D3330308CCC63392F0C3947F402E29
:1017930094184019C9B90704CACBCC225025C309F0
:1017A300CA33CACB33CBCC33CC33D9F422F4600D58
:1017B300C9CCC313CB13CBCA13CAD9F6CC22E4FCCE
:1017C300FBFA2214FCFBFA22E6C333184618461828
:1017D3004622E7C33319471947194722E608460843
:1017E300C3134608336002E633F422E7094709C30B
:1017F300134709336002E733F4221217DF601B1229
:1018030017EE60161217CB70071217D5600CB322B0
:10181300C0D01217D57005D0D022C32233D0D050F8
:101823001330E0EBC3E7960809E7960809E7960843
:1018330009E7962220E0E4E6970809E6970809E617
:10184300970809E69722080808EAC0E0EBC0E0869B
:10185300F0E7A4FA180986F0E7A42AFA180986F033
:10186300E7A42AFA180986F0E7A42AFA1986F0E70A
:10187300A4FBE5F02AFA190886F0E7A42BFBE5F0B0
:101883003AFA190886F0E7A42BFBE5F03AFA1818A0
:101893000986F0E7A4C5F02BFBE43AFA1908E7C57B
:1018A300F0C6A426F6E5F03BFBE43AFA1886F0E727
:1018B300A4F6E5F00826F6E43B08F6E43A08F6D089
:1018C300E0FBD0E0FA22E4CFC0E0E4CEC0E0E4CD18
:1018D300C0E0E4CCC0E075F020C3E633F608E6339D
:1018E300F608E633F608E633F6181818EC33FCED81
:1018F30033FDEE33FEEF33FFC3EC9709ED9709EEAB
:101903009709EF97191919400FFFEC97FC09ED9709
:10191300FD09EE97FE191906D5F0BEECF709EDF7B0
:1019230009EEF709EFF7191919D0E0FCD0E0FDD063
:10193300E0FED0E0FF226016080808C6C313C618ED
:10194300C613C618C613C618C613C6D5E0EA227056
:1019530009080808226016181818C6C333C608C633
:1019630033C608C633C608C633C6D5E0EA22E6271F
:10197300F60809E637F60809E637F60809E637F602
:1019830022E026F608A3E036F608A3E036F608A31D
:10199300E036F622E026F008A3E036F008A3E036AE
:1019A300F008A3E036F022C3E697F60809E697F6B7
:1019B3000809E697F60809E697F622C3E096F008C9
:1019C300A3E096F008A3E096F008A3E096F022E0E7
:1019D30056F608A3E056F608A3E056F608A3E05629
:1019E300F622E056F008A3E056F008A3E056F0080C
:1019F300A3E056F022E0F608A3E0F608A3E0F60819
:101A0300A3E0F622E6F008A3E6F008A3E6F008A3B5
:101A1300E6F022E0FAA3E0FBA3E0FCA3E0FD22EA68
:101A2300F0A3EBF0A3ECF0A3EDF022CAC0E0E6F0E4
:101A3300A308DAFAD0E0FA22CAC0E0E0A3C582CC58
:101A4300C582C583CDC583F0A3C582CCC582C583BA
:101A5300CDC583DAE6D0E0CA22C3E498F8E499F965
:101A6300121A9D8026C3E49AFAE49BFBE920E7E976
:101A7300121A9DE498F8E499F922C3E498F8E499DA
:101A8300F9121A9DE498F8E499F9C3E49AFAE49BED
:101A9300FB22EB20E7CFE920E7E0B90010BB000809
:101AA300E88AF084F8AAF022E4FBC8FA22EB702259
:101AB3007B10C833C8C933C9335007C39AC3DBF299
:101AC30080069A50012ADBEAC833F4C8C933F4C943
:101AD300FA2275F008E4C833C8C933C933C99AC9AF
:101AE3009B5004C92AC93BD5F0ECFBC833F4C8E4C6
:101AF300C9FA22600D08C6A2E713C618C613C6D5D5
:101B0300E0F322600C08C6C313C618C613C6D5E09B
:101B1300F422700422600D18C6C333C608C633C648
:101B2300D5E0F41822252110AF08F5214002152233
:101B33008008F52140021522D2AF22C0D025211002
:101B4300AF08F521500205228008F5215002052235
:101B5300D2AFD0D0222521F58210AF08F521400263
:101B630015228008F52140021522D2AF8522832257
:101B73002521F582E43522F58322E4732521C582EC
:101B8300C0E0E52234FFC583C0E0E521C39582248C
:101B9300F810AF08858322858221800885832285FA
:101BA3008221D2AFCEF0A3E520F0A37808E608F0B7
:101BB300A3DEFAEFF0A3E58124FAF8E608F0A3E642
:101BC30008F0A3E608F0A30808E608F0A3E608F087
:101BD300A315811581D0E0FED0E0F815811581159C
:101BE30081E8C0E0EEC0E0222521C582C0E0E52205
:101BF30034FFC583C0E0E521C3958224F910AF0803
:101C03008583228582218008858322858221D2AF24
:101C1300CEF0A3E520F0A37808E608F0A3DEFAEF00
:101C2300F0A3E58124FBF8E608F0A3E608F0A30897
:101C330008E608F0A3E608F0A315811581D0E0FEBD
:101C4300D0E0F815811581E8C0E0EEC0E0228522DE
:101C530083852182E0A3FEE0A3F5207808E0A3F6C4
:101C630008DFFAE0A3FFE0A3C0E0E0A3C0E0E0A345
:101C7300C0E0E0A3C0E0E0A3C0E010AF088582218C
:101C83008583228008858221858322D2AFD083D0A9
:101C930082020135852283852182E0A3FEE0A3F53C
:101CA300207808E0A3F608DFFAE0A3FFE0A3C0E092
:101CB300E0A3C0E0E0A3C0E0E0A3C0E010AF08856C
:101CC30082218583228008858221858322D2AFD019
:101CD30083D08222C0D02521C582C0E0E52234FF13
:101CE300C583C0E0E521C3958224F310AF08858343
:101CF300228582218008858322858221D2AFC8F084
:101D0300A3E9F0A3EAF0A3EBF0A37908E709F0A3B2
:101D1300D8FAECF0A3EDF0A3EEF0A3EFF0A3D0E03C
:101D2300F0A3D0E0F0A3D0E0F0A3E520F0A3E5F02A
:101D3300F0A322852283852182E0C0E0A3E0F9A3FA
:101D4300E0FAA3E0FBA37808E0F608A3DFFAE0FCDF
:101D5300A3E0FDA3E0FEA3E0FFA3E0C0E0A3E0C097
:101D6300E0A3E0F5D0A3E0F520A3E0A3F5F010AFE6
:101D7300088583228582218008858322858221D25A
:101D8300AFD082D083D0E0F8D0E032740480067400
:101D93000280027401C0E0F404121B58D0E0121A4E
:101DA3002E227404800474028000CCC0E0EDC0E0F5
:101DB300E521C39CCCAD2250011D10AF068C218DB3
:101DC3002280068C218D22D2AF121A3BD0E0FDD0A7
:101DD300E0FC22D083D082E9C0E0E493A3C386F081
:101DE300C5F095F0F908E493A386F0C5F095F0707B
:101DF3000BE493A3C3994005E9048002A3E475F0BF
:101E030002A42582F582E5F03583F583D0E0F9E479
:101E130093A3C0E0E493C0E022D083D082ECC0E07F
:101E2300EDC0E0E493A3FCE493A3FDED4C600D123D
:101E33001E68EC24FFFCED34FFFD80EFE493A3FC6C
:101E4300E493A3FDED4C600D121EA7EC24FFFCED03
:101E530034FFFD80EFD0E0FDD0E0FCE493A3C0E0CD
:101E6300E493C0E022C0E0C3E49396087401939620
:101E730018400FE4936670080874019366187000A5
:101E83007019A3A3C3E49396087401939618A3A3AC
:101E9300400DD0E0D0E0D0E0021E58A3A3A3A3A33B
:101EA300A3D0E022C0E0C0F088F0E4936670080895
:101EB30074019366187000A8F0A3A3700BD0F0D040
:0F1EC300E0D0E0D0E0021E58A3A3D0F0D0E02280
:101ED40074F5121BEBEAFEEBFFEE2434F8EF34004A
:101EE400F988088909EE243512200CF8EE243712FB
:101EF400200CF50AEC850AF0A4FCAAF0850AF0EDA2
:101F0400A42AFDE82CF8E43DF97A257B00121A9DF9
:101F1400EA850882850983F05407F87401B8000241
:101F24008004C333D8FCC0E0E0131313541FF8EE4D
:101F340028F8EF3400F9E8245DF582E93400F583EC
:101F4400D0E0F8E0586008850882850983801DEE9A
:101F5400243612200CF5F0EA84A8F0EE28F8EF34C9
:101F640000F9E82438F582E93400F583E0F97F04C8
:101F7400021C9774F5121BEBEAFEEBFFEE243412FD
:101F8400200CC0E0EE2435F582EF3400F583D0E078
:101F9400F08E828F83A3A3A3A3A3E0FAA3E0FB8E16
:101FA400828F83A3A3A3A3A3A3A3E0FCA3E0FDECDC
:101FB400C39AF50AED9BF50BEE2480F508EF340087
:101FC400F509850882F583E06401702BEE2481F520
:101FD40082EF3400F583121DA91220157402121B1E
:101FE4003EE960137C447D05EEFAEFFB120D528549
:101FF4000882850983E4F0AC0AAD0BEEFAEFFB121C
:102004001ED41227CE021F72F582EF3400F583E04E
:1020140022C082C083852182852283E0F8A3E0F96F
:10202400C3EA9CEB9D5012C3EC98ED994019C3EAA6
:1020340098EB99501279018010C3EA98EB9940F516
:10204400C3EC98ED9950EE7900D083D08222EAC394
:102054009CFAEB9DFB2200008524878525C622C0BF
:10206400E074EF121CD7759B00906182E0A2E640F9
:1020740003022124E591A2E640030221247591BFC5
:10208400900409E064057008120F14120F208003F5
:10209400120F1A752400120F9EE990040AF07900B9
:1020A400120F80120CAA7A017B00900408E0F91246
:1020B4001286907803E06442600302216D9005BDAE
:1020C400E014F0600302216DC2AF1220D100782D1C
:1020D400D0E0F618D0E0F6E59F5407F97005909328
:1020E4007B800390938778081219F8E9C4C0E078DC
:1020F4002CE65508F50808E65509F509740B780827
:10210400121B06D0E02508F8906270E0A2E740F8C0
:10211400E8C333906272F0906270E0D2E0F08049DC
:10212400E0A2E55024E591A2E5501E7591DF9004EC
:1021340009E0640D701390042BE004F0642870022D
:10214400E4F07A00E0F9121028906181E0A2E350F3
:1021540009E5E9A2E3500375E9F7A3E0A2E7500912
:10216400E591A2E7500375917F7F04021D36C0E01C
:10217400C0D0C082C083906183E0A2E05009E5BF73
:10218400A2E0500375BFFEE0A2E15009E5BFA2E161
:10219400500375BFFDE0A2E25009E5BFA2E250037F
:1021A40075BFFBE0A2E35009E5BFA2E3500375BF8E
:1021B400F7E0A2E45009E5BFA2E4500375BFEFE0E5
:1021C400A2E55009E5BFA2E5500375BFDFE0A2E632
:1021D4005009E5BFA2E6500375BFBFD083D082D0BB
:1021E400D0D0E032C0E074F2121CD7E5A7A2E450CC
:1021F4000FE5A1A2E4500953A7EF75A1EF12223C09
:10220400E5A7A2E5500CE5A1A2E5500653A7DF75AA
:10221400A1DFE5A7A2E15009E5A1A2E1500375A160
:10222400FDE5A7A2E2500CE5A1A2E2500653A7FBEC
:1022340075A1FB7F01021D3674F8121BEB75240196
:10224400900409E0640670077A007B00120EFCA279
:10225400AFE433FED2AF90040FE0640170187A202B
:102264007B00900408E0F91213167A207B00900496
:1022740008E0F912128C906182E0D2E6F09005BC7D
:10228400E0602185C625801690040EE06401700884
:10229400E5C654F84405F5C653BEFC12205C74012F
:1022A400652460E4EEA2E092AF7F01021C97000077
:1022B4008E268F2785822B85832A852182852283FA
:1022C400E0CEA3E0CF852B82852A83EBC9EAC8ED53
:1022D400CBECCA75F010C3E833C8E933C9EA33CA92
:1022E400EB33CBC3EA9EF529EB9FF528B35004AB3F
:1022F40028AA29EC33CCED33CDD5F0DAAE26AF27BE
:102304002274E9121BEB74FA121B28EAFEEBFF8C11
:10231400088D09900409E024F7C3940550069093AE
:102324004702242C120E788A0A8B0BEA450B7003A1
:10233400022429120F328A0C8B0D120F32EA650C1B
:102344007003EB650D60ECEEFCEFFD8521828522C8
:1023540083AA82AB83120F38850A82850B83A3A3D9
:10236400780C1219F890935B780C1219D28521829B
:1023740085228378141219F890935B78141219D279
:10238400780C791412168B501F780C79141219AA30
:102394009093EB780C1216AB4047850C10850D1109
:1023A400850E12850F13804185141085151185162D
:1023B400128517137810790C1219AA9093EB7810E0
:1023C4001216AB501C7510007511007512007513B0
:1023D40001781079141219AA7810790C12197180E5
:1023E4000890934778101219F8740978101219524A
:1023F400909383780C1219F87810790C1218C990FC
:102404000409E06408600AE064066005E06405709D
:102414001C90935778101216AB50129093E77810D3
:1024240012198480089093BB78101219F8850882D9
:102434008509837810121A077406121B3E7F100256
:102444001C9774F7121BEB120F4A9005BAE0640153
:102454007010906245E4F0A3F053F4F343FE0C5380
:1024640090F3120EEAE5C654804449F5C6E59E543D
:102474007F644970F8906185740FF09005B8E0F4BA
:102484007002A3E0602C7508017509009005B8E09E
:102494007808121B15E508F4FAA3E0600814600A32
:1024A40014600C800DEA52808008EA52908003EA9E
:1024B40052A079007F02021C9774F7121BEBE9FE0D
:1024C400EAFF74016E700C7A807B00900408E0F9D6
:1024D400121286902840E493F46008E493F9120CF5
:1024E4008C800953C680E59E547F70FA120EF090DA
:1024F40005BAE064017003120CC29005B8E0F470F0
:1025040002A3E0602A7508017509009005B8E07817
:1025140008121B15AA08A3E0600814600A14600CD2
:10252400800DEA42808008EA42908003EA42A012C9
:102534000E788A088B09A808A909E8496017E5E11B
:1025440070FCE82414F582E93400F583E0F874FFA4
:1025540068600288E174016F700A7A01900408E0EF
:10256400F91212E00224B874F1121BEB8A088B09E9
:102574008C0A8D0B740F121B73780C1219F890933C
:102584005B78081219D290935B780C1219D27808F0
:10259400790C12168B50157808790C1219AA90939D
:1025A400EB78081216AB401579018013780C790882
:1025B4001219AA9093EB780C1216AB40EB79007FBA
:1025C40008021C9774ED121BEB8A088B098C0A8D88
:1025D4000B7413121B73780C1219F890935B780820
:1025E4001219D290935B780C1219D2780C790812D4
:1025F400168B40117808790C1219AAAA08AB09ACF9
:102604000AAD0B8022751000751100751200751348
:10261400017810790C1219AA78107908121971AA84
:1026240010AB11AC12AD137F0C021C9790935B7826
:10263400081219F88A828B8378081219E57F04023C
:102644001C9774F5121BEB8C828D8378081219F891
:102654008A828B8378081219BE12269AC3E098F0F6
:10266400A3E09912268C401E90934378081219F81F
:102674008A828B8378081219978E828F83E02420B4
:10268400F0A3E0344EF080A4F08E828F83C3E094F4
:1026940020A3E0944E22EA2404F8EB3400F9E8FE87
:1026A400E9FF8C828D83A3A3A3A3E0F8A3E0F98EB2
:1026B400828F832274F5121BEBE9FE90055BE0FA2E
:1026C400A3E0FBEEC333F8E433F974F928F582741C
:1026D4009039F583E02AF508A3E03BF50978081260
:1026E4001D9290933F121A161222B47402121B3ECA
:1026F4008A088B098C0A8D0B74107808121939AA70
:1027040008AB097F04021C9774F1121BEB8A0C8B33
:102714000D8C0E8D0F740F121B73E0FAA3E0FB7483
:1027240011121B73E0F508A3E0F5097413121B736F
:10273400E0FEA3E0FF7808121D92EA2401F508EBFD
:102744003400F509E4F50AF50B780C7908121849F8
:102754009093E378081219F8780C7908121849AAAA
:102764000CAB0DAC0EAD0F1222B47402121B3E8BD7
:1027740009EA450960047A0180027A00EC2AFCED3A
:102784003400FDECF8EDF97A717B02121A9D880889
:102794008909E4F50AF50B8E828F837808121A07EB
:1027A400ECF8EDF97A717B02121A9D8A088B097490
:1027B400057808121B158E828F83A3A3A3A3E508B3
:1027C400F0A3E509F07F08021C97C082C083E9905A
:1027D4006000F0D083D08222C0E074F2121CD7A231
:1027E400AFE433FED2AFE589A2E15003121484753D
:1027F4008900C2C5752300EEA2E092AF7F01021DDD
:1028040036C0E074F2121CD7A2AFE433FED2AFE5B7
:102814008BA2E05003121484758B00C2E880D5C0EB
:10282400E0C0D0E8C0E0E5A8D2AFC2C7752300A2DB
:0B283400E792AFD0E0F8D0D0D0E03247
:10284000FFFFFFFFFFFFFFFFC082C083E9900BD2B5
:10285000F0022ACC74F7121B7FE9900327F07C5F0B
:102860007D037AFF7BFF12099890032874FFF0A381
:10287000F0A3E4F0A3F07905120920900327E0F912
:102880001208427AB67B09120B900237DA74F412FE
:102890001B7F8A088B09EB54806030900327E0F996
:1028A00012126E8A0A8B0BAE0AAF0BEE4F60138EBC
:1028B000828F83E064B07003120938EEFAEFFB12E6
:1028C000125CAA08E5096480FB80047A007B0002A0
:1028D0002A9B74F2121B7F74FC121B28EAFEEBFF8A
:1028E0007412121B73123CC1EE4F700302297574EF
:1028F00002121B73EEF0A3EF122CD6ECF0A3ED1234
:102900002CD6AA82AB8312083CE9F50A706AE50866
:10291000450960648E828F83123CA7EE4F60567A21
:10292000067B001212C88A0C8B0DA80CA90DE84971
:102930007005750A13804188828983E4122982EE2A
:10294000F0A3EF123CD2E508F0A3E509F090032DC7
:10295000122A0990032D7005123784801B123772DA
:102960008003EAFCEBFD8C828D83122A0970F38CC4
:10297000828D8380E3750A02A90A7404121B3E0249
:102980003EC1F0A3123C78A32274F2121B7F890A85
:10299000E975F017A4FEAFF090032CE4F090032A41
:1029A000122A09600A1212CE90032AE4F0A3F0EE74
:1029B000FAEFFB1212C88A088B09EA4509602FEE6C
:1029C000FCEFFD790012124490032AE508F0A3E51C
:1029D00009F07B0080081229F3E4F0A3F00BEBC3AD
:1029E000950A40F2E50A90032CF0790080027913F1
:1029F000023EC1EB75F017A4F8A9F090032AE02875
:102A0000FAA3E0398A82F58322123416EA4B227443
:102A1000F4121B7F740C121B73123C9CFEE9FF75B1
:102A20000800750900800CE5082401F508E5093463
:102A300000F509C3E5089CE5099D503285080A8523
:102A4000090B7403780A121B15EA250AF8EB350BFB
:102A5000F988828983A3A3A3A3A3A3123859EE659F
:102A60000A7003EF650B70BFE8FAE9FB80047A0097
:102A70007B00802774F4121B7F7900EAA2E0501BD0
:102A80007508087509937808121D927C047D007AF8
:102A9000D47B0B12091A7402121B3E7F04021C51D4
:102AA000C082C08390032D122AD3601C8882898340
:102AB000A3A3E06A7003A3E06B8882898370E8A314
:102AC000A3A3A312341280047A007B00D083D082A7
:102AD000020135123FA7E8492274EE121B7F74FCF5
:102AE000121B28EAFEEBFF852182852283E4F0A3F6
:102AF000F0EE2402123764EE2405123C7FEE24042B
:102B0000F50EEF12308BE024FE603924FC60462481
:102B1000FE605224FE605E24FE7003022BEC24FE55
:102B20007003022C5024FE7003022C5F24FE7003FD
:102B3000022C6E24FC7003022C7D24FE7003022CF8
:102B40008C022CC99003467417F0A3E4122CDE12F9
:102B500004EE022CC9852182852283AC82AD8312CA
:102B6000093E022C99852182852283AC82AD831295
:102B70000944022C99850C08850D097402121B73F7
:102B8000AC82AD83850882850983123412120860F5
:102B90008A0C8B0DAC0CAD0DEC4D603BE4F50CF5E7
:102BA0000D780C121D92750C46750D03780C121DD4
:102BB00092750C47750D03780C121D927408121B48
:102BC00073121DA9124123121B3EE9F50C700B1262
:102BD0003408120506800F750C018508828509836B
:102BE000122CCC123784850C08022C9C7402121B08
:102BF00073AC82AD83850C82850D831231DD603C20
:102C0000850C82850D83A3A3121DA975104675112D
:102C1000037810121D927510477511037810121D5C
:102C2000927408121B73121DA9124123121B3EE954
:102C3000F509700B12340812050C800F7509018517
:102C40000C82850D83122CCC123784850908804CA8
:102C5000852182852283AC82AD8312094A803A8520
:102C60002182852283AC82AD83120950802B85217D
:102C700082852283AC82AD83120956801C85218215
:102C8000852283AC82AD8312095C800D852182850B
:102C90002283AC82AD83120962E9F508E508602958
:102CA0008E828F83A3E06414601F850E82850F835C
:102CB000E0900346122CD6123FA3900347123784AC
:102CC000E508A3122CDE1204E8023673123FA78532
:102CD000218285228322F085218285228322F07C35
:102CE000467D03850A82850B831234162274EE1208
:102CF0001B7F74FC121B288A0A8B0B8C0E8D0FEA2B
:102D00002405F508EB3400F5097C157D0079007A7F
:102D1000467B03121244E5082402F50CE509123C37
:102D20008285218285228385821085831178101205
:102D30001D92850882850983A3A3A3A31231D4120F
:102D40001D92E5082405F510E5093400F511781009
:102D5000121D92850C82850D8312352912085A7432
:102D600006121B3E8A108B11AE10AF11E50A240229
:102D7000F50AE50B123767EE4F7003022EAB801792
:102D80007402121B7312341288828983EAF0A3EB57
:102D9000F0900346E004F0900346E0C3940540033E
:102DA000022EABE4F510F5117810121D9275102F5C
:102DB0007511037810121D9275103075110378107B
:102DC000121D927406121B73121DA97910EEFCEFEE
:102DD000FD124125121B3EE9705E8508828509833C
:102DE000A3A3A3A3A3A3A3E0F890032FE0687048D4
:102DF0001231D4121D927C307D03E5082408FAE5D7
:102E0000093400FB12123E7402121B3EE960298E47
:102E1000828F83A3A3A3A3123412900346E0F5107C
:102E200074027810121B1574472510F5827403354F
:102E300011F583EAF0A3EBF07402121B7385821084
:102E40008583117810121D927402121B73121DA932
:102E5000850C82850D83123438121B3E8A108B112B
:102E6000AE10AF11900346E0F510751100740278B2
:102E700010121B1574462510F874033511F9888259
:102E80008983A3122A097003022D77E82403080816
:102E900008E93400F9EE4F6003022D8088828983AF
:102EA00074FFF0A3F0900346E004F0900346E06066
:102EB0000A1234081204FA7900800B850882850909
:102EC0008312377B790A02367374EA121B7F74FE11
:102ED000121B288C128D13EA2405F50CEB12410D00
:102EE000123CAB750800750900EA2402F510EB34BA
:102EF00000F51185218285228385820A85830B78DE
:102F00000A121D92850C82850D83A3A3A3A3123000
:102F1000A1121D92E50C2405F50AE50D123767781C
:102F20000A121D92850C82850D831230A512085A53
:102F30007406121B3E8A0A8B0BEA450B70030230A3
:102F400046EA2404F50EEB12308B123CAB8A828BDE
:102F500083A3A3A3E0F985108285118312341C603A
:102F600003023046E4F514F5157814121D92751419
:102F70002F7515037814121D92751430751503788A
:102F800014121D927406121B73121DA97913AC0A38
:102F9000AD0B85108285118312412B121B3EE9F582
:102FA00009600302304690032FE0F8E5087009E05D
:102FB0002402900347F08014900347E0FCE82402C9
:102FC000FAE43400FBEA6C7001EB707E850882AA9B
:102FD000821231CB94141231C3506B850E82850F4F
:102FE00083E0C0E074482A123082D0E0F005088502
:102FF0000E82850F83A3E0C0E085080A7448250A85
:10300000123082D0E0F0050890032F1230A1121D7B
:10301000927C307D0385080A7448250A1230951287
:103020001B3E90032FE02508F50874FF6E700374B3
:10303000FF6F6012EE24010EEF3400FFE508C39429
:10304000145003022EF3E508601312342685108213
:1030500085118312341212050079008014E509707D
:103060000375090A851282851383EEF0A3EFF0A998
:10307000097402121B3E7F0E021C5185080C744815
:10308000250CF58274033400F583223400F50F8596
:103090000E82F58322FA74033400FB12122C7402A0
:1030A00022123CE122A3A31230AB22123772FDEEB2
:1030B000FAEFFB2274EE121B7F74FE121B288C0E9B
:1030C0008D0FEA2405F50CEB123C82750B00900382
:1030D00046E4F0F50AEA2402F508EB3400F509802D
:1030E00044900346E0FA90032FE0F81231CB941796
:1030F0001231C3400D900346E0F87416C398900354
:103100002FF01231D4121D927C307D0374472AFABD
:103110007403123098121B3E90032FE0F890034680
:10312000E028F0050AE50C2416F582E50D1230863C
:10313000E0F8E50AC3985074900346E0C394165033
:103140006BE50AC333F8E433F9E50C28FEE50D39E5
:10315000FF852182852283AC82AD838E828F83128C
:1031600031DD7008750B011237778050E4F510F5EA
:10317000117810121D9275102F7511037810121D01
:10318000927510307511037810121D927406121B7F
:1031900073121DA9791685088285098312412B12A5
:1031A0001B3EE9F50B70030230E180BB7C467D03DA
:1031B000850882850983123412120512A90B740244
:1031C000023675E99400C365D03322EA28F8E43466
:1031D00000F9E822E0F51075110078102212366A25
:1031E0008A108B11AC10AD11EC4D2274EA121B7FCA
:1031F00074FC121B288A0C8B0D8C128D13EA24058B
:10320000F50AEB123767750800750900E50A240214
:10321000F510E50B3400F5117402121B7385820E54
:1032200085830F780E121D92850A82850B83A3A3D6
:10323000A3A3123C87121D92E50A2405F50EE50BA7
:103240003400F50F780E121D9285108285118312BD
:10325000376D12340C12085A7406121B3E8A0E8BFC
:103260000FAE0EAF0FE50C2402F50EE50D3400F5A0
:103270000F80388882898374FFF0050812307B74D0
:10328000FFF0050890032FE0F50C750D00780C1287
:103290001D927C307D0385080C7448250C123095F6
:1032A000121B3E90032FE02508F508EE4F60278E95
:1032B000828F83A3A3A3E0F9850E82850F83123446
:1032C0001CEE2404123C7FE96027850C82850D8367
:1032D0001233FE123784E50870030233E4123426F9
:1032E000850E82850F83123412120518790002337D
:1032F000F9E4F514F5157814121D9275142F75154F
:10330000037814121D927514307515037814121D6C
:10331000927408121B73121DA97911EEFCEFFD8542
:103320000E82850F8312412B121B3EE9F509709A1C
:10333000850882AA82EA90032F7009E02404900392
:1033400047F08025E0F8900347E0F514E82404FCFA
:10335000E43400FDEC65147001ED70811231CB9402
:10336000121231C340030232DD850C82850D83E0E9
:10337000C0E074482A123082D0E0F00508850C8243
:10338000850D83A3E0C0E012307BD0E0123441858C
:10339000820C85830D780C121D927404121B73121B
:1033A0001DA9851082851183123438121B3E8A0CA8
:1033B0008B0DAE0CAF0D85080C7448250CF874030A
:1033C0003400F9EE4F700302327385218285228327
:1033D000E088828983123441A3E0C0E012307BD0C0
:1033E000E0023281E509700375090A850A82850BBE
:1033F000831233FE123784A9097404023073123F1A
:10340000A7851282851383227C467D03850A8285E7
:103410000B8312341622E0FAA3E0FB2212341612B8
:103420000848E9F50922900347E0F5F0E5088490A3
:103430000346F07C467D03221230AB12086674040A
:1034400022F005088521828522832274EC121B7FDD
:1034500074FE121B288A088B098C0E8D0FEA240536
:10346000FEEB3400FF123654EE2418123C7FEA457E
:103470000B70030234F712363D502912351C8A10A6
:103480008B11EA4511606B7912AC0AAD0B8508828D
:10349000850983123412851082851183121B7DE900
:1034A000F50A7058E4F50AF50B780A121D928E821F
:1034B0008F83A3A3E0F50A780A121D92EE2403126B
:1034C0003764780A121D928E828F83123529120971
:1034D000867406121B3EE9F50A7021850C82850D63
:1034E00083E0701F85088285098312341212051E3D
:1034F0008011750A0E8009750A018004E50A6003CF
:10350000123777850C82850D83E060047900800294
:10351000A90A7402121B3E7F0C021C518521828570
:10352000228312341612097422123772FD85088222
:103530008509831234162274EE121B7F74FE121B4F
:10354000288A088B098C0C8D0DEA2405FEEB3400CB
:10355000FF750E00123654EA450B700302361B123B
:10356000363D502C12351C8A0E8B0FEA450F604AEF
:103570007912AC0AAD0B8508828509831234128555
:103580000E82850F83121B7DE9F50E600302361E45
:10359000850882850983123859AA0AFB12362F70D2
:1035A000147AFF7BFF12362F606C88828983E50ACC
:1035B000F0A3E50BF0750A008007750E0E805F051D
:1035C0000A90032CE0FAE50AC39A504AE50A75F01E
:1035D00017A4FAABF088828983A3A3E02AFAA3E0B8
:1035E0003BFB8A828B8312376DEC4D70D2750A17C4
:1035F000750B00780A121D92EEFCEFFD12122C746E
:1036000002121B3EEEFCEFFD850882850983123411
:10361000121205248014750E098003750E01123FE5
:103620009F850C82850D83123784A90E0231BE124C
:1036300009688A108B11A810A911E84922E508240D
:1036400002F508E5093400F5098A828B83A3A3A358
:10365000E0A2E522852182852283AC82AD838E8221
:103660008F8312366A8A0A8B0B22E0FAA3E0FB12E0
:103670000860227404121B3E7F0A021C5174EC1273
:103680001B7F8C108D11EA2405F50CEB123C827522
:103690000F00EA2402F50AEB123767850A82F583E8
:1036A0001234121241B17003023759750E00807145
:1036B000850C82850D83E06401704F8E828F83A319
:1036C000A3121DA98E828F83A3A3A3A3E0F5127575
:1036D00013007812121D92EE2405F512EF3400F556
:1036E000137812121D9212340C1209867406121BE2
:1036F0003EE9F50F6014850C82850D83E4F0123FDE
:103700009F8510828511831237847C177D00790094
:10371000EEFAEFFB1212448E828F83E4F0A3F005E1
:103720000E90032CE0F8E50EC398501EE50E75F0E0
:1037300017A4F8A9F0850882850983A3A31241176D
:1037400012376DEC4D60030236B08508828509831F
:1037500074FFF0A3F0E50F700612340C12052AA9CD
:103760000F023517F50AEF3400F50B22A31237725A
:10377000FD22E0FCA3E0228E828F83123FA7850EFC
:1037800082850F83E8F0A3E9F022C082C083900312
:1037900028E06A7003A3E06B70067A287B0380043C
:1037A0007A007B00022ACC74F7121B7F7F00EF7532
:1037B000F003A4F8A9F0EC28F8ED39F988828983A0
:1037C000E06A7003A3E06B7006E8FAE9FB800B0F78
:1037D000EFC3940240D87A007B007F01021C517431
:1037E000F6121B7F123D9070067A007B008007A3C3
:1037F000A3A3A3123412023E5174F2121B7FE9FEFE
:10380000740E121B731238597410121B73123CC1C0
:103810008C828D83E06402703BA3123FA38882896F
:1038200083E0F50CA3E0F9A80C7402687003742916
:10383000697021750C02750D00780C121D927808C4
:10384000121D92780A121D92EEF91209AA7406123C
:103850001B3E80027901023EC1E0F50AA3E0F50BB0
:103860002274E8121B7F74FB121B28E985218285D4
:103870002283F08A168B178C0E8D0F741F121B7308
:10388000123CC17421121B731238597423121B731A
:10389000123CAB7510008C828D83A3A3A3E0A2E43D
:1038A000502A741D121B731235228A828B83E58283
:1038B0004583700302396D790AAC0EAD0FAA16ABC1
:1038C00017121B7DE9F5106003023970850E8285A1
:1038D0000F83E064026003023C26A3123FA3850825
:1038E00082850983A3858212858313E50E2406F55C
:1038F0000CE50F123C8288828983E0FAA3E0F9EAA2
:103900002400F514E439F5157814121E1C0100008A
:103910002801283539070002280C3A03287C390091
:1039200029363B01295E3B0229053B0329363B042E
:1039300029C73B263CEE4F703E850C82850D8312D5
:103940003C9CFAE9FB8A828B83E0850A82850B83A3
:10395000123CD8121D928A828B83A3123772FDAA61
:1039600008AB0912122C7402121B3E800375100E54
:10397000A910740502410575100B80F4EE4F70F725
:10398000850A82850B837401F0123CB1850882851B
:103990000983F07C007D00850E82850F83A3A3A39D
:1039A000A3E02401FAA3E03400FB120860EA4B60B4
:1039B000418A828B83E02402F8850A82850B83E0AA
:1039C00028F0EA2404F8EB3400F988828983E08542
:1039D0001282851383123CEA123CD8121D928A820D
:1039E0008B8312376CE5082403FAE5093400FB02E7
:1039F0003963850A82850B83E02404F07C047D0012
:103A00007900AA12AB13121244023970EE4F600310
:103A1000023977123CB1FEA3E0FF850A82850B8351
:103A20007404F0EE850882850983F0EF85128285A3
:103A30001383F07403121B73AC82AD83EEFAEFFBB9
:103A4000123D7E7003023AE28A828B83A3A3123C6A
:103A5000A77401121B7385820E85830F780E121DC9
:103A6000927405121B73121DA97CFF7DFF1208665C
:103A70007404121B3E8B0FEA450F7033850C828550
:103A80000D83123C87121D92850C82850D83A31233
:103A90001DA97C027D007A0A7B941205FC74041235
:103AA0001B3EE9700A7401121B7374FFF0A3F08EC1
:103AB000828F83E064027034750C02750D00780CFF
:103AC000121D928E828F8312376CE5082404FAE56A
:103AD00009123098121B3E850A82850B83E024026E
:103AE00080097401121B73EEF0A3EFF07401121B36
:103AF00073123C98F07401121B73A3123C90A3A3A1
:103B0000A3F0023970EE4F6003023977850C82858D
:103B10000D8312376DAA16AB1712099E850A82858E
:103B20000B837402F0EA850882850983F08512828E
:103B3000851383EB80CBEE4F6003023977123CB1E3
:103B4000F8A3E0F9850A82850B837402F0E8850802
:103B500082850983F0E985128285138380A3850C11
:103B600082850D83123412121226EAFC8C82A882FE
:103B7000C39EE49F404BE86E7001EF70047C0080B0
:103B80001F852182852283E0FAEE2AFAEF3400FBBA
:103B9000C3EA98EB94005003E08004EECCC39CFC95
:103BA000EC850A82850B83F08C0A750B00780A126B
:103BB0001D92850C82850D83E02EFCA3E03F023927
:103BC0005E751007023970EE4F6003023977850C7D
:103BD00082850D83123FA3850A82850B837407F0CB
:103BE00088828983123C90123C78E085128285138A
:103BF00083F0E82402FAE93400FB8A828B83123CCA
:103C000090123CC9123C98A3123CD2123CA1F0E89D
:103C10002405F8E93400F988828983123CA1A312B3
:103C20003CEAA3023AFE741D121B73123D89700315
:103C300002396D123FA3880C890DE8450D7003020F
:103C4000396D8E108F117810121D92780A121D9204
:103C50007808121D927406121B73E0F9AC0EAD0FBA
:103C6000AA16AB17850C82850D83121B7D74061274
:103C70001B3EE9F510023970F088828983A322F592
:103C80000CEF3400F50D22E0F50E750F00780E22D2
:103C9000E085088285098322123CF122123FA7E8C1
:103CA00022123CF1A3A322A3A3A3A3E0FEA3E0FF5F
:103CB00022850C82850D83E0F8A3E0F5838882E0FD
:103CC00022E0F508A3E0F50922A3A3F08A828B8302
:103CD000A322122984A3A322F08A828B83123CE1BF
:103CE00022E0F50A750B00780A22123C78123CF1AA
:103CF00022E0850882850983A3A32274EE121B7F2C
:103D000074FE121B288A0A8B0BECFAEDFB7414125A
:103D10001B73E0F510A3E0F5117416121B73E0FE9F
:103D20007418121B73E0F50EA3E0F50F8521828550
:103D30002283AC82AD83123D7E603E852182852246
:103D400083123D89602FA3A3123CC1E50845096099
:103D500024780E121D927810121D92EEF9AC0CAD63
:103D60000DAA0AAB0B850882850983121B7D74049A
:103D7000121B3E8006790E800279010231BE1208C4
:103D8000608A0C8B0DEA450D22123416123D9022EA
:103D90001209328A828B83E58245832274F6121BD4
:103DA0007F74FE121B28740C121B73123C9C85211D
:103DB00082852283F07401121B73E9F0E4F508F5A3
:103DC000097808121D927508027808121D92740471
:103DD000121B738582088583097808121D921209C7
:103DE000867406121B3E7402121B3E806474F71226
:103DF0001B7FEAFEEBFF89087C5F7D0312099EEAC8
:103E00005402600BA908EEFAEFFB12085480027905
:103E1000010237DA74F6121B7F74FF6A700374FFB5
:103E20006B701C7B00EB75F003A4F8A9F0EC28F88C
:103E3000ED39F9123E560BEBC39402501480E61292
:103E4000096E8A088B09A808A909E8496003123E8F
:103E5000567F02021C518882898374FF122982E4F2
:103E6000F02274F6121B7F12096E8A828B83E58220
:103E700045836006A3A3E0FA80027A007B0080D12C
:103E800074F2121B7F8A088B09ECFEEDFF740E1290
:103E90001B73E0F50A123EC6701CEEFCEFFD7AFFC4
:103EA0007BFF123EC670047911801688828983E5F3
:103EB00008F0A3E509F088828983A3A3E50AF079D5
:103EC000007F06021C5112096E8A0C8B0DA80CA9EA
:103ED0000DE8492274EE121B7FEAFEEBFF8C088D81
:103EE00009890C7412121B73123FA37414121B73F2
:103EF00012376D7416121B73123412750D00EC4DCF
:103F00006003023F977402650C6003023F9288824F
:103F10008983123772F9EC2400F50EE439F50FEAC3
:103F2000F4F8EBF4F9EC58F8E50F59F9E849705D4D
:103F3000E5082406F8E5093400F9880A890B888227
:103F4000F5831230A712099E8A108B11E50E6510B9
:103F50007004E50F65116042780E121D92850A8289
:103F6000850B831230A71209A47402121B3EE9F5D7
:103F70000D7027780E121D92850882850983A3A3F0
:103F80001230A51209BC7402121B3E800D750D8003
:103F90008008750D0D8003750D0BA90D0236788E06
:103FA000828F83123FA722E0F8A3E0F92274E8127F
:103FB0001B7F74E7121B28852182852283EAF0A3E8
:103FC000EBF08C168D17890E7431121B73E0F5120D
:103FD000A3E0F5137433121B73E0F514A3E0F51599
:103FE0007435121B73E0F50F750800750900E509BB
:103FF00075F003A4F8A9F085218285228312411768
:10400000E0F47003A3E0F470030240F5EE2402F53F
:104010000CEF12410DE070030240F585160A85177A
:104020000B780A121D92AC14AD15AA12AB1312092B
:10403000267402121B3E8A0A8B0BEA450B700302A0
:1040400040F5E4F510F5117810121D927406121B5C
:10405000738582108583117810121D927409121BCA
:10406000738582108583117810121D9285128285C6
:104070001383A3A3A3A3121DA97914AC0AAD0B8EBD
:10408000828F8312412B121B3EE97069850A82855B
:104090000B83A3A3A3A3123FA37402121B731237B3
:1040A00084850C82850D83E0A2E05018A90E74026D
:1040B000121B73AC82AD838E828F8312341212086E
:1040C00078E94208850C82850D83E0A2E15026E55F
:1040D0000FF50A780A121D96A90E7403121B73AC11
:1040E00082AD838E828F8312341212087274011291
:1040F0001B3EE942080509E509C394025003023F4B
:10410000EEA9087419121B3E7F10021C513400F5F1
:104110000D850C82F58322E028FEA3E039FF8E8214
:104120008F83227916850A82850B83123416120931
:104130008074082274F2121B7FEAFEEBFF890B7475
:1041400001650B600E7402650B70637901120BAE92
:10415000E9705BEEFAEFFB1241B16047750A00802F
:104160000B7C177D007900121244050A90032CE0A5
:10417000F8E50AC3985021E50A75F017A4F8A9F0EC
:10418000850882850983A3A3E028FAA3E039FB8A86
:10419000828B83122AD370C985088285098374FFB4
:1041A000F0A3F07C5F7D03EEFAEFFB120998023E6C
:1041B000C11209688A088B09EA45092274F2121BA8
:1041C0007F8A088B09ECFEEDFF740E121B73123808
:1041D00059900BD2E0F4603D7A097B00121256EA46
:1041E0004B60328A828B8374B1F0A3E4123CCBA380
:1041F000123CC9A3E508F0A3E509124218EEF0A3AA
:10420000EF124218A3A3E50AF0A3E50BF0900BD23E
:10421000E0F9121262023EC1F08A828B83A3A3A34B
:10422000A3A322C082C0839061907404F0A3744859
:10423000F0A3E4F09061807440F09061BC7407F0EA
:104240009061877469F09061B67416F07900120C71
:10425000B07902120CB6902840E493F46006E4931F
:10426000F9120C8C790512100A024974C082C083BD
:10427000E9540FF9906185E0696012E5C654804405
:1042800049F5C6E59E547F644970F8E9F053C6804D
:10429000E59E547F70FA02497474F7121B7FE5A8FB
:1042A000FE53A87E120C98C2BA539AFEC289759B1F
:1042B00000C2C2120C9E75A91175B905120CA4D2C8
:1042C000BA439A0174805E42A8024D6BC082C083DB
:1042D000906181E4F0A302497175E9007591007560
:1042E000BF00020135C082C083906181E4F0A374F5
:1042F000C0F0A3E4024973C082C08374F8121B2883
:1043000090040B124C4EE84970030243AE90040B2C
:10431000E0544060237908852182852283AA82ABFC
:1043200083120DB8852182852283AA82AB83120A6B
:104330003A90040BE054BFF0E054806010790C7A9E
:10434000DE7B05120DB890040BE0547FF0E0A2E094
:10435000500879001243B654FEF0E0540260087928
:10436000011243B654FDF0E0540460087900124392
:10437000C154FBF0E05408600879011243C154F7BE
:10438000F0E05410600879021243C154EFF0E05499
:1043900020600879031243C154DFF0A3E0540160A8
:1043A0000D120CC2120A4C90040CE054FEF074087A
:1043B000121B3E024974120CB0120A4090040BE02A
:1043C00022120CB6120A4690040BE022C082C0836F
:1043D000E9600514602A804F90619A7433F0A374E9
:1043E00055F09061A0743AF09005BAE0640170094C
:1043F000C29190040D7467802D90040D7461802625
:1044000090619A743FF0A3745AF09061A0747FF0A9
:104410009005BAE064017009D29190040D74718026
:104420000590040D746AF0024974C082C083E9608B
:104430000B14600D14600F146011802090284480CC
:10444000159028458010902846800B9005BAE064AE
:104450000160F3902847E493906186F002497474F8
:10446000EE121B7F74F4121B28852182852283ACF7
:1044700082AD8375839375826B7404121A3B902806
:104480004493F460030245F1907808E0C39402502D
:10449000030245D17404121B73AC82AD8375839201
:1044A0007582A97408121A3BF97AFF7BFF7FFF7EA1
:1044B000008982858210801874086E700302458618
:1044C00074096E7003024586740A6E700302458695
:1044D000E510C333FCE433FD7404121B73E5822C36
:1044E000F582E5833DF583E0F50EA3E0F50F8E0838
:1044F00075090074027808121B1574482508FC74AD
:10450000783509FD8C828D8378081219F874087843
:104510000812193985080C85090D8C828D8378085D
:104520001219F874187808121939E50C4508F508BD
:10453000E50DF509C3E50E9508E50F95098C828D0B
:104540008378081219F88C828D8378081219F87410
:104550001878084014121939E50C4508FCAD0DE532
:104560000EC39CFCE50F9D800F121939E50C450820
:10457000C3950EFCE50D950FFDC3EC9AED9B50061F
:10458000ECFAEDFBEEFF0EEEC3941350030244B8B9
:1045900074FF6A700374FF6B602D8F0874027808D3
:1045A000121B1574481252CE74783509F5837808B9
:1045B0001219F8852182852283E5822510F582E58E
:1045C00083125186E508F009E9C3940450030244BC
:1045D000A97508017509007808121D927402121B52
:1045E00073AC82AD837A117B0A12145A7402121BC7
:1045F0003E740C121B3E7F0A021C51C082C0839085
:104600006186E0F8902847E493687009902846E4B2
:1046100093906186F09061AE7468F0A3746AF09034
:10462000624574FBF0A304F053F4FD43FE029005D1
:10463000BA7401F09061A0E0643A700479008002DD
:104640007901120CB0024974C082C0839005ABE0BE
:10465000640170179005B1E0F87401686009E870B2
:104660000AA3E064017004790C8010900555E064A1
:1046700001700690055AE070EE7900024974C0821C
:10468000C08375E1F1900558E0604B146008146038
:104690004F146047804F120CD490054EE0F97A4FCA
:1046A0007B05120F6290936F121A16124A69121A42
:1046B00016120F6E900559E0F9120F7A7901120F58
:1046C000FE90054CE0241612488174F8F0A3740C97
:1046D000F07900024974120CDA80BE120CE080B945
:1046E000120CE680B4791280EA74F4121B7F75D93B
:1046F0000D90053DE0A2E0E4331313F81247EB48B8
:104700004401F5D978001247F540FB780088087419
:104710003E1252CE74051247FF40F275E1959005A6
:104720003DE0F97A3E7B05120F68900BF47462F05D
:10473000A3740C124805124A827480F0A3740C1200
:104740004A9590054C124ACE78081219F890937346
:10475000780812198490935B78081219D290054C4E
:10476000E0240E1248817808121A0712487B74134D
:104770001249237402F07F04021C5174F6121B7F4D
:104780001247E1FA8AD978001247F540FB78008099
:1047900006124870124B5EE8C39940F51249111297
:1047A00047F540FB780080081252CA7405124B5E30
:1047B000E8C39940F375E195900BF4746EF0A3741F
:1047C0000C12480512480F121A1690054CE0240EE0
:1047D000124881121A2212487B7412124923024D88
:1047E0004890055EE0F9740729F5D990054EE0C4BC
:1047F000333354C0228808744F2508F5827405129B
:104800004CBA940622124AB27468F0A3740C2212B5
:104810004A88F0A37480F0A3740C124A99909343D1
:104820002274F6121B7F1247E14402F5D978001278
:1048300047F540FB78008006124870124B5EE8C3D3
:104840009940F575E195900BF4124890F0A3124849
:1048500090124812121A1690054CE0240E1248814C
:10486000121A2212487B74141249237404024D4A0E
:104870008808745F2508F58274052290054CE024B1
:1048800014F8A3E0124888223400F9888289832230
:10489000747A12489D12489DF0A3740C22F0A37400
:1048A0000CF0A3747A2274F6121B7F1247E1FA749B
:1048B000064AF5D978001247F540FB7800800612C9
:1048C0004870124B5EE8C39940F51249111247F542
:1048D00040FB780080081252CA7405124B5EE8C390
:1048E0009940F375E195900BF47474F0A3740C1275
:1048F0004AAB12480F121A1690054CE0240E1248CB
:1049000081121A2212487B74151249237403024D36
:104910004A90057EE0F9740729F5D974044AF5D95F
:10492000780022F090040922C082C0839005B574FB
:1049300025F09005B37401F0A3E4F07A01FB120FA7
:104940008C9005A1E024161248817404F0A3740D24
:10495000F09005B2E0640170169005B1E070107936
:1049600001120FE6120FB6120FE07900120FF2805B
:1049700003F0A3F0D083D08202013574F6121B7FBE
:1049800074FA121B289005AAE064017008120CEC5E
:104990009005AAE4F075E1F19005A1E02415124814
:1049A000817401F09005ACE0640170539092E4C012
:1049B00082852182852283AC82AD83758392D082E9
:1049C0007406121A3B75D90D9005A31247EE4403E5
:1049D000F5D97800880874A41252CE74051247FFE6
:1049E00040F278008808852182852283E582125270
:1049F000CEE5831247FF40EC75E19579018002799D
:104A000000120F92900BF4742AF0A3740EF0A374AA
:104A100030F0A3740E124A79124A79124A82124A6D
:104A20008EF0A37436F0A3740E124A959005A3E09D
:104A3000F97AA47B05120F62124A707901120F985D
:104A400090936F121A16124A69121A16120F6E7983
:104A500000120FFE9005A112487E741612492374AD
:104A600005F004121B3E024D4B120FAA90935322E5
:104A70009005B5E0F91227CE22F0A3742AF0A374B2
:104A80000E22124A88F0A322124A8C22F0A3742428
:104A9000F0A3740E22124A9922F0900C02124A8E50
:104AA000124AB6124A8E124A8CF022124AB2124AA6
:104AB0008E22124AB622124AC37424F0A3740E1234
:104AC0004AC322F0A37424F0A3740EF0A322124A66
:104AD000D222E0F8A3E0F5838882A3A322C082C09B
:104AE0008390054C124B4B02497174F7121B7F12D5
:104AF000563BF8740439F9E82405FAE93400FB8AD6
:104B0000828B831253B388828983A3A3A3A3A3A315
:104B1000A3A3A3ECF0A3EDF088828983A3A3A3A3AE
:104B2000A3A3A3E024FFF8A3E034FFF98A828B83D8
:104B3000E8F0A3E9F0024D6BC082C0839005A1129A
:104B40004B4BF0A3F0124A70024974124AD2A3A34D
:104B5000A3A3E422880874BE2508F58274051252C6
:104B6000DAF5D90822EAFEEBFF9061D0E0F8748014
:104B7000C398FAEE248322124B7D9404221251949E
:104B8000E0F5D90AEAC32274F6121B7FEAFEEBFFB6
:104B90009061D0E0707575D90E75D90375D9047A16
:104BA000008A08EE2508125709248C124C2040F187
:104BB0007A008A08EE25081257092484124B7740A0
:104BC000F175E1957908EE248C124C192484124C6D
:104BD000107C008C82AA82C3E49AF895E0F9EE2852
:104BE000F8EF39F9E8248BF582E91252D6C0E0EEED
:104BF0002A12570924ABF582E9125186D0E0F00C55
:104C0000ECC3940840CD124CD680027900024D4B83
:104C1000FAEF3400FB120DAC22124C107904EE2294
:104C2000124B7D940822C082C08375D90275D903C6
:104C300075D90575E195EA2470F582EB124C4BEAC3
:104C40002472F582EB124CE8024974125197124C0F
:104C50005222E0F8A3E0F92274F6121B7FEAFEEB81
:104C6000FF9005BE7406124CC4121D927C0179039C
:104C7000124FEF121B3E75D90675D9037800124CFE
:104C8000AA40FB75E195900409E064087017EE24D2
:104C900070F582EF124C4BEE2472F582EF125186C2
:104CA000E8F0A3E9F07901024D4B880874BE2508AD
:104CB000F5827405124CBA940522125197E0F5D989
:104CC00008E8C322F07508BE75090578082275E169
:104CD000957904120FB0EE2470F582EF12519712FD
:104CE0004C52EE2472F582EF125197E8F0A3E9F0EE
:104CF00079012274F6121B7FEAFEEBFF9061D0E08F
:104D0000704279019005BE740B124923E06407706C
:104D1000177508BE7509057808121D927C010909EE
:104D2000124FEF121B3E7905740129F5D975D9038D
:104D300078008003124B54E8C39940F875E195124E
:104D40004CD68002790080037401F07F02021C516E
:104D500074F7121B7FEAFEEBFF75D90375D9037553
:104D6000D90DEE24DE124D70124CCE7F01021C5183
:104D7000F582EF1252DAF5D9227F03021C51740139
:104D8000250AF5D975D90378002274F5121B7F1214
:104D90004DFF6004780480027800E8240BF8EAC331
:104DA000984041750A099005BE7409F07908124DC2
:104DB000E860147508BE7509057808121D92124F37
:104DC000E7121B3E750A0D124D7E8003124B54E80C
:104DD000C3950A40F775E1957904120FB0124F643C
:104DE0007901800279008091EE24E3FCEF3400FD2C
:104DF0007ABF7B05120DA6850882850983E0221201
:104E00004B65F8EF1253A7F583E02274F3121B7F72
:104E10008A088B09124FFAFAE5082483F50AEB1287
:104E20004EC96004780480027800E82408F8EAC3D8
:104E3000985003024EC2750C069005BE740CF0909B
:104E40000426E09005BFF07402C0E0F97C277D04E1
:104E50007AC07B05120DA6D0E0F97C297D04120DE5
:104E6000A6850A82850B83E0601C750ABE750B055A
:104E7000780A121D927C067903AA08AB09124FEF3B
:104E8000121B3E750C0A7401250CF5D975D90378EF
:104E9000008009880A74BE250A124B5AE8C3950C93
:104EA00040F175E1957904120FB0E5082470F582A0
:104EB000E509124C4BE5082472F582E509124CE82D
:104EC000800279007F05021C513400F50B850A82AF
:104ED000F583E02274F6121B7FEAFEEBFF124FFA15
:104EE000FCEE2483F8EF124FF560047A0480027A16
:104EF00000EA2404FAECC39A405E7A029005BEEA06
:104F0000F0EE24F5F582EF124F7060197508BE754A
:104F100009057808121D927C027903EEFA124FEF10
:104F2000121B3E7A0674012AF5D975D903780080E0
:104F300003124B54E8C39A40F875E195EE247412BD
:104F40004F5DEE2480124F5D124F647904120FB052
:104F5000EE240D124CD980027900024D4BF582EF00
:104F60001250E022EE241DF582EF1250E0A3F02251
:104F70001252DA9005BFF088828983E02274F6121B
:104F80001B7F124FFAFEEA2483F8EB124FF5600400
:104F90007C0480027C00EC2404FCEEC39C40437C37
:104FA000029005BE7407F0EA24F6F582EB124F700A
:104FB00060157508BE7509057808121D92790312EF
:104FC0004FEF121B3E7C0674012CF5D975D903787E
:104FD000008003124B54E8C39C40F875E1957901B9
:104FE00080027900024D4B7C097903EEFAEFFB1247
:104FF0000E18740222124888E0229061D0E0F87402
:1050000080C3982274F5121B7FE9FEA2AFE433F54A
:105010000AC2AF7F00EA246FF8EB3400F980010F79
:1050200088828983E0FCEFC39C50188F08EA25082A
:10503000FCEB3400FDEC246BF582ED1252D66E7061
:10504000DE8010EA2CFAEB3400FB125180EE124F96
:105050007604F0E50AA2E092AF024D7974F6121BD5
:105060007FA2AFE433FFC2AFEA246FF8EB12570B15
:10507000FCE9FD8C828D83E014F07E0080218E0897
:10508000EA2508F8EB12570B246CF582E91252D688
:10509000C0E0E8246BF582E9125186D0E0F00E8C76
:1050A000828D83E0F8EEC39840D4EA246E125183D7
:1050B00074FF1250D5EFA2E092AF024D4BC082C0F8
:1050C00083E5A8F8C2AF125180E91250D5E8A2E7F3
:1050D00092AF024974F0EA246AF582EB1250E022A2
:1050E000125197E4F02274F2121B7F8C828D83A3FD
:1050F000A3A3A3E0541FF0EA24361254428E828FF9
:1051000083E4F0F50C850C8285820AEC250AF8ED23
:105110001253A3F583E0C0E0EA250AF8EB12518AA6
:10512000D0E0F0750D00850882850983E0F50A75E9
:105130000B00E50D780A121AF6E50AA2E0502AE5FE
:105140000C33333354F8250DC0E08E828F83E0F8A2
:10515000EA28F8EB12570B2438F582E9125186D071
:10516000E0F08E828F83E004F0050DE50DC3940816
:1051700040B4050CE50CC39405408A7F06021C511F
:10518000EA246BF582EB125197223400F9E8245D92
:1051900012519422F582E93400F5832274F6121B31
:1051A0007F900435E0640170077A007B000252C7EB
:1051B0007E0090043BE070F17401F0A3E4F0A3F0F2
:1051C00090049B04F090049EE4F0A3F09004A104EA
:1051D000F090043EE41252E790044804F090046E0C
:1051E000E4F09093BB121A16900451121A22900404
:1051F00055E4F0A3F0A3F09004B9F09004ADF09062
:1052000004A27480F0A3E4F09004A8F09004A0F04D
:105210009005241252DF90052DF09004BCF090050B
:105220000CF0A3F09093BB121A1690050E121A22DE
:105230009093BB121A16900512121A22900518E4C8
:10524000F090051AF0900516F09005301252DF8E9E
:105250000874A41252CE740412518674FFF00EEE3C
:10526000C3940440EA7E008E82A882744428F582AA
:1052700074051252D6C0E0749628F5827404125157
:1052800086D0E0F00EEEC3940540DC7E008E82A84E
:1052900082741D28F58274041252D6C0E0741C2852
:1052A000F5827405125186D0E0F00EEEC3940840EA
:1052B000DC900435E004F06401700890043DE09057
:1052C0000437F07A397B04024D4B8808747F250837
:1052D000F58222F582EF1252DA22125197E0221261
:1052E00052E7A31252E722F0A3F0A3F0A3F022C0EA
:1052F00082C083EA2403F582EB1252D66008E4F000
:10530000900436E014F0900435E014F07006900438
:105310003774FFF08A828B83A3A3E4F0900549E001
:10532000700D900436E0640170057900120F800260
:105330004974C082C08390043CE4F090043BF09038
:105340000435F0A3F0A374FFF075E1F1024974C0D5
:1053500082C0837800790090043CE0600478397959
:105360000488828983A3A3A3A3E0F902497474F695
:10537000121B7FEAFEEBFF120D5EEE2465F8EF12C2
:1053800053A31253B1EC4D6010900437125633857D
:105390000882850983E4F0A3F0EEFAEFFB120E72A7
:1053A000024D4B1253A7223400F9880889098882DC
:1053B00022F583E0FCA3E0FD2274F7121B7FEAFED6
:1053C000EBFF8E828F83A3A3A3A3E0FA7B00120AD4
:1053D000B8EEFAEFFB120D70120E54024D6B74F61C
:1053E000121B7F78008808741D1252CE7404124F6D
:1053F0006008E8C3940840ED90041D024D4874F61F
:10540000121B7FEA240D125442EC2403F8ED340001
:10541000F988088909EC2407F8ED12570BFCE9FD1F
:1054200012544C121A9D8E828F83E8F0A3E9F01279
:10543000544C121A9D8B09EA4509600312545F020D
:105440004D4BF8EB3400F9E8FEE9FF228C828D83A6
:10545000124C52850882850983E0FAA3E0FB228E74
:10546000828F83E02401F0A3E03400F02274F6126E
:105470001B7FEA242EF582EB34001253B1EA24702C
:10548000125442780079FAECFAEDFB121A9D8E82E2
:105490008F83E8F0A3E9F0780079FAECFAEDFB12DB
:1054A0001A9D8B09EA4509600312545F024D4B7443
:1054B000F0121B7FEAFEEBFF7410121B73780812C8
:1054C00019F8120F2C8A0C8B0D8C0E8D0F90937780
:1054D000780C12198490935B780C1219D2780C1204
:1054E0001D8E8E828F83124ACE121A1612256B746D
:1054F00004121B3EE960030255978E828F83E024DD
:1055000002F8A3E012570BFAE9FB8A828B83780832
:1055100012199790935B78081219F88A828B837816
:10552000081219E5EE240BF582EF125186C082C0F5
:10553000838E828F83A3A3A3A3A3E02401F8A3E017
:105540003400F9D083D082E0687003A3E06970046E
:1055500079018045EE2407F8EF124888125463EE73
:1055600024741257107014EE247512559E7003A304
:10557000E06D70078A828B83125463EE2480125789
:10558000107014EE248112559E7003A3E06D700715
:105590008A828B8312546379007F08021C51FAEFD0
:1055A0003400FB8A828B83E0FCA3E0FD8882898340
:1055B000E06C2274F3121B7F12563BFE740439FF19
:1055C000EE2404F50AEF3400F50BEE2465F508EF40
:1055D0003400F50980101253B3850882850983E4ED
:1055E000F0A3F012562D8508828509831253B3EC7F
:1055F0004D6030EE24641252D3F50C780C121D96D7
:10560000EE24631252D3F9EEFAEFFB120D9A7401F5
:10561000121B3EE985088285098360BA124C4EE868
:105620004970077C007D0012562D024EC4850A8207
:10563000850B83E0FA7B00120A7022900437E0F8B1
:1056400075F004A4C8AAF02AF97439282274F21259
:105650001B7FEAFEEBFF890A740E121B73E0FAEE61
:1056600024621257106003025704124FFAF50CEE31
:1056700024831252D3FB60047804800278008908E6
:10568000E928F8E412570B24020808E93400F9E588
:105690000C98E499A2D265D0334065EA7005750B89
:1056A000028003750B01EB60337509007808121D49
:1056B000927ABE7B05120DE27402121B3E7508BE83
:1056C0007509057808121D92AC0AA90B124FEB124E
:1056D0001B3E7404250AF50A7CBE7D057401250A6B
:1056E000F5D9850BD97800800A8808EC1252CEEDE6
:1056F000124B5EE8C3950A40F075E195790080068B
:105700007907800279FF02517BF8EF3400F9E82233
:10571000F582EF1252DA640122C082C08380031244
:105720005747E9F874FF28190470F4ECFAEDFB020E
:105730004974C082C0838003125747E9F874FF2878
:10574000190470F40249748C828D83E08A828B8301
:10575000F08C828D83A3AC82AD838A828B83A3AAD3
:1057600082AB832274F4121B7FE9FF7E008A088BD0
:10577000097808121DD600040D15599757B357C85C
:1057800057DD57F257075823583C584E587C589EBF
:1057900058BA58D658F45874016F70128C828D83A1
:1057A000E0C394035008E0900D22F00259337E18B4
:1057B00002593374026F70F68C828D831260BF9031
:1057C0000D23E8F0A3E980E274016F70E18C828D13
:1057D00083E0C3940250D7E090084F80CD74016FEE
:1057E00070CC8C828D83E0C3940550C2E090085049
:1057F00080B874016F70B78C828D83E0C3940250BF
:10580000ADE090085180A374106F70A27508108EDF
:10581000097808121D927A527B08126AB0121B3E58
:1058200002593374016F70868C828D83E0C39402B9
:1058300040030257AEE09008620257AA74016F60FD
:10584000030257AE8C828D83E0900D26808D740408
:105850006F60030257AE90933F78081219F88D835A
:105860008C82780812169B40030257AE8C828D837F
:10587000121A16900864121A22025933EF600302BA
:1058800057AE1207ACE9700E1213E8795012159852
:105890001213DC0259339008F774010257AA7401FD
:1058A0006F60030257AE8C828D83E0C39402400385
:1058B0000257AEE09008630257AA74016F600302BA
:1058C00057AE8C828D83E0C3940A40030257AEE04A
:1058D000900D250257AA74016F60030257AE8C82A7
:1058E0008D83E024F9C3940A40030257AEE0900D83
:1058F000270257AA74016F60030257AE9008F6E0C2
:10590000F88C828D83E09008F6F0E87026E0640160
:105910007021025890C3EA9426EB9400501374024D
:105920006F700E8C828D831260B912064AE9FE8078
:10593000020E0EEEF98005740E121B3E7F04021C4F
:105940005174F0121B7F74CC121B288C0A8D0B74BF
:1059500044121B73E0FE7420121B73AC82AD83757E
:1059600083927582DE7406121A3B7420121B73AC8C
:1059700082AD83121388E9FFC3940A4003025AA33D
:1059800075F006EFA4F5097426121B73AC82AD8383
:105990007A0E74202509126283700A7432121B7306
:1059A000E0F5088003750800900D22E064027004A1
:1059B00074018001E4F50D780D121D96EEFDAC0822
:1059C000EFF9AA0AAB0B1214127401121B3E7C14DD
:1059D0007D007900740C121B73AA82AB83121244EF
:1059E000740C121B73AC82AD837A107424250912D7
:1059F000628370387C1079FF740C121B7312626D15
:105A0000702A741C121B73AC82AD837A0474252532
:105A100009F9121592740C121B73AC82AD83E50860
:105A2000A2E0E433F9AA0AAB0B1206D485218285E1
:105A30002283AC82AD837A0C74702F126283705112
:105A4000852182852283AA82AB831213BE7F00EF59
:105A500075F003A4F8A9F0852182852283E58228C8
:105A6000F8E5831262BC1260B9EC4D601D88828932
:105A700083A3A3E0F50E750F00780E121D92AA0AFB
:105A8000AB0B12098C7402121B3E0FEFC39404403F
:105A9000BEE508A2E1500C90084EE0F9AA0AAB0B53
:105AA00012099274046E702A900D22E06402702232
:105AB000900862E060047A0180027A0090084FE06A
:105AC0006004780480027800E84AF9AA0AAB0B1255
:105AD000079479007434121B3E7F08021C5174F045
:105AE000121B7FEAFEEBFF8C088D09750A0AE9603C
:105AF0000F14600C146038147003025B83025B8E19
:105B00001213D0E9F50AC3940A4003025B8EE5083C
:105B10004509607A750E06750F00780E121D92EE1B
:105B2000FCEFFDAA08AB09126AB0121B3E805F753C
:105B30000B00750E06750F00780E121D92EEFCEF2D
